:020000040800F2
:10000000D80A0020ED0100088937000819320008DD
:10001000393700081B1400081D42000800000000CA
:10002000000000000000000000000000A93B0008E4
:100030005514000800000000A73B0008513C0008D0
:10004000070200080702000807020008070200086C
:10005000070200080702000807020008070200085C
:10006000070200080702000807020008070200084C
:100070003D140008491400080702000807020008A0
:10008000070200080702000807020008070200082C
:1000900007020008070200080702000859140008B8
:1000A000070200080702000807020008070200080C
:1000B00007020008070200080702000807020008FC
:1000C00007020008070200080702000807020008EC
:1000D00007020008F9410008054200081142000823
:1000E00007020008070200080702000807020008CC
:1000F00007020008070200080702000807020008BC
:1001000007020008070200080702000807020008AB
:100110000702000807020008CD3C0008070200089B
:10012000070200080702000807020008070200088B
:1001300000F002F800F04AF80AA090E8000C8244AF
:100140008344AAF10107DA4501D100F03FF8AFF28C
:10015000090EBAE80F0013F0010F18BFFB1A43F0A5
:1001600001031847185F0000385F0000103A24BFF1
:1001700078C878C1FAD8520724BF30C830C144BF0C
:1001800004680C607047000000230024002500264E
:10019000103A28BF78C1FBD8520728BF30C148BFEA
:1001A0000B607047662904F05087642900F0528084
:1001B000002070471FB500F0F3FB04000020002171
:1001C00004F056F9E0601FBD10B510BD00F0E8FC6A
:1001D0001146FFF7EFFF04F053F800F006FD03B4FB
:1001E000FFF7F2FF03BC00F049FD0000094880471B
:1001F00009480047FEE7FEE7FEE7FEE7FEE7FEE709
:10020000FEE7FEE7FEE7FEE704480549054A064B20
:1002100070470000CB3C000831010008D8040020E2
:10022000D80A0020D8060020D80600200FB41CB53C
:10023000074B06AA7B4469460090059800F097FB9F
:100240000020694600F0A6FB1CBC5DF814FB000012
:100250005D0700002DE9F04106460024106875296D
:10026000314616A510D0AFF30080002802DA4042D4
:1002700013A507E031688A0701D512A502E04907F6
:1002800004D511A5012401E0AFF3008000210A226A
:1002900006F1240709E0B0FBF2FCB0FBF2F302FB2D
:1002A0001C00303078541846491C0028F3D12346EE
:1002B0002A463046BDE8F04100F0EBB800000000EF
:1002C0002D0000002B000000200000002DE9F04769
:1002D0004FF0000A89460446C0F820A02046E16895
:1002E0008847002876D0252806D0D4E901219047F8
:1002F000206A401C2062F1E7E1682046002588471B
:10030000C4F81CA006460027C4F818A02A2E09D05D
:10031000304603F0A8FF38B304EB8708303EC8F836
:10032000186019E059F8041B204604EB870291611C
:10033000E1688847012F064618D1E069002820DAD5
:1003400025F020051DE0D8F8180000EB800006EB32
:1003500040003038C8F818002046E1688847064653
:1003600003F081FF0028EED1012F0AD02E2E08D1F4
:100370002046E16888477F1C0646022F45F020058D
:10038000C4DBA069002803DA404245F00105A06102
:10039000E80701D025F01005B6B1A6F141001928F3
:1003A00002D8203645F400654A463146204625608D
:1003B0004D46FFF7F7FE58B1012806D0ED1D25F098
:1003C000070000F1080989E704E005F1040985E761
:1003D00030468AE7206ABDE8F08710B5203AC0F0C1
:1003E0000B80B1E81850203AA0E81850B1E8185036
:1003F000A0E81850BFF4F5AF5FEA027C24BFB1E873
:100400001850A0E8185044BF18C918C0BDE81040E3
:100410005FEA827C24BF51F8043B40F8043B08BFEC
:100420007047D20728BF31F8023B48BF11F8012BB3
:1004300028BF20F8023B48BF00F8012B70474FF05F
:10044000000200B5134694469646203922BFA0E824
:100450000C50A0E80C50B1F12001BFF4F7AF090730
:1004600028BFA0E80C5048BF0CC05DF804EB890021
:1004700028BF40F8042B08BF704748BF20F8022B64
:1004800011F0804F18BF00F8012B7047704770477C
:1004900070472DE9F0470D4699469246044600F113
:1004A00024080168880604D5E06921F01001216064
:1004B00000E00120A84201DD471B00E00027A16900
:1004C0007A1902EB0900081AA0612078C00602D44C
:1004D0002046AFF30080002608E0D4E901211AF895
:1004E00006009047206A401C761C20624E45F4DBD3
:1004F0002078C0060AD52046AFF3008006E0D4E994
:10050000012130209047206A401C2062381EA7F14C
:100510000107F4DC07E0D4E9012118F80500904751
:10052000206A401C2062281EA5F10105F3DC20464C
:10053000AFF300802078000602D50220BDE8F087E6
:100540000120FBE770472DE9FF4F0C461E464FF098
:10055000FF378BB0D2E90001DDF860800A908A464F
:10056000C1F30A5505B93D46002108464FF0000089
:10057000BAF1000F00F4400005DA00EB80004FF400
:10058000400101EA50004FEA9059B9F1010F00DD36
:10059000B9460A9850EA4A000ED044F61050A5F227
:1005A000FF3545432F14B8F1000F1ED07542291EA8
:1005B0001EDDC9F100021CE0B8F1010F4FF0000090
:1005C00001D0302103E0F24305E02154401CB04249
:1005D000FBDB30460022002121540B99C1F8088032
:1005E000C1E900200FB0BDE8F08FBD1B6D1CDEE738
:1005F0004A4600DA694206A800F05CFA06AB93E8C6
:10060000070003AB83E8070050460A9900F03DFB62
:100610008DE80700A0F500501F3800900398002DCA
:100620000ADD42F21F014A460844002303A9039051
:10063000684600F0A6FD09E0A0F500504A461F38C4
:10064000002303A90390684600F0B0FD8DE8070081
:100650000004000C03D04FF0FF30410800E01046CA
:10066000B8F1000F03D00022009215461EE0751E5F
:1006700005D400F099F9303262556D1EF9D5B346B4
:100680000122084302D000227F1C04E02078302899
:1006900001D100227F1E002A099784D01DE0112D70
:1006A00007DA00F081F9303262556D1C50EA010220
:1006B000F5D1084302D00098C8B10EE00021681EB1
:1006C00005E0235C625C63542254401E491C814255
:1006D000F7DBAB46A81B401E0990002004F80B0076
:1006E0000B98099AC0F80880C0E9002B7AE7112618
:1006F0004FF0000857E72DE9F04F88460446D21D19
:1007000022F0070191B0D1E90001CDE90A0103F01F
:1007100086FD02460B98C00F01D02D2007E020680F
:10072000810701D52B2002E0202101EAC000032A25
:10073000099001D0072A05DB03464146204600F018
:1007400079F90BE12078800601D5E06900E0062008
:10075000B8F1650F814606D0B8F1660F18D0B8F130
:10076000670F70D131E00020B9F1110F009001DB6B
:10077000112301E009F101030AAA01A90CA8FFF75E
:10078000E2FEDDE90C70002609F10105834647E031
:1007900001204B4600904FF000470AAA01A90CA87F
:1007A000FFF7D1FEDDE90DB00C995D46002610B9CA
:1007B00009F101000D18B9EB050003D4C0F1FF36B3
:1007C00009F10105A5EB09002BE0B9F1010F01DAF0
:1007D0004FF001090020B9F1110F0090484601DDEA
:1007E000112300E003460AAA01A90CA8FFF7ABFEFB
:1007F000DDE90C704D4600268346207800070AD4B8
:10080000AB4500DA5D4601A8012D04DD411911F860
:10081000011C302907D04F4502DA17F1040F04DA22
:10082000012082460FE06D1EEEE7002F02DCED1B7B
:100830003E4403E0781CA84200DD7D1CB81B00F19B
:10084000010A4FF000472078000703D4AA4501DBD6
:100850004FF0FF3A0021B7F1004F0DF143088DF83A
:10086000431024D002202B23002F01DA7F422D23B6
:100870000A21021EA0F1010000DC5FB197FBF1FC30
:1008800097FBF1F201FB1C7C17460CF1300C08F8C9
:1008900001CDEEE7A8F1010003702188090501D51B
:1008A000452100E06521A0F1010800F8011C09982C
:1008B0000FA9A1EB0807FF1D00B10120411901EBB1
:1008C000EA70A1693844081A401EA0612078C00669
:1008D00002D42046AFF30080099828B1D4E9012161
:1008E0009047206A401C20622078C00622D520460E
:1008F000AFF300801EE0002E04DBB34502DD01A84B
:10090000805D00E03020D4E901219047206A401C3E
:100910002062761CAAF101005FEA000A0AD100F009
:100920003FF8C0680168405CD4E901219047206A23
:10093000401C2062281EA5F10105DCDC07E0D4E99B
:10094000012118F8010B9047206A401C2062381ED4
:10095000A7F10107F3DC2046AFF30080032011B0BC
:1009600041E6000001694A1C02610878704700B541
:100970008FB0CDE901310021059105497944CDE9D8
:10098000031011466846FFF7A1FC0FB000BD000040
:10099000E5FFFFFF0A6802F8010B0A6070470000DC
:1009A000004870479804002030B5B0F10A024FEAC1
:1009B000900E71F100034EEA817EB0EB0E0061EB08
:1009C00091014FEA101E4EEA017E10EB0E0041EB42
:1009D00011114FEA102E4EEA016E10EB0E0041EBA2
:1009E00011214FEA104E4EEA014E10EB0E0041EB82
:1009F0001141401841F100014FEAD00040EA417036
:100A00004FEAD10110EB80054FEA810444EA90746B
:100A100044EB01046D1944EB0404521BA3414FF055
:100A2000000348BF0A3200D530BD401C41F100012F
:100A300030BD00002DE9F0411F4604460326016841
:100A4000072A01F4006004DB08B116A505E016A52D
:100A500003E008B115A500E015A521F01000206005
:100A6000A069C01EA0610FB1401EA0612046AFF377
:100A700000804FB1D4E9012138469047206A401CDC
:100A80002062C01C206206E0206AFAE7D4E9012156
:100A900015F8010B9047761EF8D22046AFF3008080
:100AA000BDE8F0814E414E006E616E00494E460039
:100AB000696E66002DE9F047814616468AB03548D2
:100AC00078440DC88DE80D0032487844801C03AC92
:100AD0000DC884E80D0041F69B300844372190FB97
:100AE000F1F290FBF1F5A5F1800501FB12041B3C2E
:100AF00002D56442012000E00020DFF898A0804683
:100B00000027FA44AAF1BE0A0EE0E0070AD03246F6
:100B1000684607EB470101230AEB810100F046FB21
:100B20008DE8070064107F1C002CEED1194F7F4424
:100B3000AE3F19E0E80715D007EB04100DF1180AD5
:100B400090E80E008AE80E00C068F04201D19819C2
:100B500008903246012306A903A800F027FB03AB47
:100B600083E807006D10641C002DE3D14FF00103F2
:100B700032466946B8F1000F03A802D000F001FB2D
:100B800001E000F013FBC9E90001C9F808200AB030
:100B9000BDE8F087A05500000048704778040020A9
:100BA0007546FFF7F9FFAE4605006946534620F04B
:100BB0000700854618B020B5FFF726FBBDE82040AA
:100BC0004FF000064FF000074FF000084FF0000B09
:100BD00021F00701AC46ACE8C009ACE8C009ACE8BC
:100BE000C009ACE8C0098D46704710B50446AFF3A4
:100BF00000802046BDE81040FFF7F1BA4FF0013CFD
:100C000050F8042B51F8043B9A4221D1A2EB0C037B
:100C1000934313EACC1317D150F8042B51F8043B3B
:100C20009A4215D1A2EB0C03934313EACC130BD1D8
:100C300050F8042B51F8043B9A4209D1A2EB0C0363
:100C4000934313EACC13DBD04FF00000704700BF92
:100C5000D01A01BAB1FA81F101F0180122FA01F0BB
:100C6000CB40C1F12001DBB2C0B2C01A2CFA01F3B3
:100C7000D11A914311EAC311E6D1704701491820F6
:100C8000ABBEFEE72600020070475FEA400C08BFDB
:100C900091F0000F4FEA8C234FEAC12243EA5151F1
:100CA0004FEA1C5018BF00F5F0404FEA300018BF63
:100CB00041F000415FEA6C5C00F02980BCF1FF3F2D
:100CC00008BF40F080407047130C06BF12044FF07D
:100CD000100C4FF0000C130E04BF12020CF1080CA4
:100CE000130F04BF12010CF1040C930F04BF920008
:100CF0000CF1020CD30F04BF52000CF1010C114691
:100D00004FF00002A0F11F00A0EB0C00704711F0A3
:100D1000004F08BF704731F000413FF4D5AF0B0CD6
:100D200006BF09044FF0100C4FF0000C0B0E04BF6F
:100D300009020CF1080C0B0F04BF09010CF1040CA3
:100D40008B0F04BF89000CF1020CCB0F04BF4900CC
:100D50000CF1010CCCF12003A0EB0C0022FA03F300
:100D600002FA0CF241EA030100F10100704720F0A1
:100D70007F4C80EA030023F07F47ACEB070303F5C9
:100D80007C5300F0004003F1FF032DE980494FEA56
:100D9000154B09B44FEA144325EA0B4E24EA0348E5
:100DA0000FF2042606EB132749083E785FEA320269
:100DB00003FB0667C7F5000707FB06F64FEA543743
:100DC0004FEAD64606F1020607FB066CCCF1005C42
:100DD0004FEA1C472CEA074C07FB06F40CFB06F510
:100DE00004EB15464FEA961634BF00204FF0004042
:100DF0004FEAD13706FB07FC4FEA1C4C0CFB0BF704
:100E0000D21B03FB0CF761EB07010CFB0EF7B0EBF9
:100E1000074072EB17420CFB08F734BFA2EB074206
:100E2000B2EB074261EB17414FEA0C444FEA9107DE
:100E300006FB07FC4FEA1C4C0CFB0BF7B0EBC74062
:100E400072EB573203FB0CF734BFA2EBC742B2EB95
:100E5000C74261EB57310CFB0EF7B0EBC70072EBEA
:100E600057720CFB08F734BFA2EBC702B2EBC70204
:100E700061EB5771039F4FEA816141EA921104EBE4
:100E8000CC044FEAD1374FEA826206FB07FC42EA04
:100E900090124FEA80604FEA1C4C0CFB0BF7D21B00
:100EA00003FB0CF761EB07010CFB0EF7B0EB0740FF
:100EB00072EB17420CFB08F734BFA2EB0742B2EB10
:100EC000074261EB17414FEA8C554FEA910704EB5B
:100ED0009C2406FB07FC4FEA1C4C0CFB0BF7B0EB09
:100EE000C74072EB573203FB0CF734BFA2EBC7428B
:100EF000B2EBC74261EB57310CFB0EF7B0EBC7000A
:100F000072EB57720CFB08F734BFA2EBC702B2EBCF
:100F1000C70261EB577115EB4C254FEA816141EA3D
:100F200092114FEA82624FEAD13742EA901206FBF1
:100F300007FC44F100044FEA80604FEA1C4C0CFBB4
:100F40000BF7D21B03FB0CF761EB07010CFB0EF751
:100F5000B0EB074072EB17420CFB08F734BFA2EB73
:100F60000742B2EB074261EB174115EB1C154FEA44
:100F7000813141EA92414FEA823242EA90424FEA9D
:100F800080304FEA0C7644F1000448EA03434EEA0D
:100F90000B484FF0000EB2EB080C71EB030724BFB7
:100FA000624639464EEB0E0E4FF0000B00185241D0
:100FB00049414BEB0B0BB2EB080C71EB03077BF1D8
:100FC000000B24BF624639464EEB0E0E4FF0000B6D
:100FD0000018524149414BEB0B0BB2EB080C71EB83
:100FE00003077BF1000B24BF624639464EEB0E0E21
:100FF00051EA020718BF46F0010616EB0E7655F1CE
:10100000000254F1000103D5BDE88901BDE8008864
:10101000BDE88901BDE80048B619524141EB010124
:10102000A3F10103704780807F7E7D7C7B7A797895
:10103000777676757473727171706F6E6E6D6C6C9D
:101040006B6A6A696868676666656464636362613F
:101050006160605F5F5E5E5D5D5C5C5B5B5A5A59C0
:10106000595858575756565555555454535352522C
:101070005251515050504F4F4F4E4E4D4D4D4C4C84
:101080004C4B4B4B4A4A4A494949484848474747CD
:10109000474646464545454444444443434343420A
:1010A000424242414141002B9C4630D477002BD034
:1010B0001CB54FEA370703B44FF010004FF0100192
:1010C000BAF1000F06D0BCF1000FDCBF40F0080001
:1010D00040F008014FF000000FBCBDE810400BF1DC
:1010E000010BBBF1010F08BF5FEA170722BF12F126
:1010F000010211F101014FF0004143F1000300F042
:10110000004043EA00007047F9D35708D0E746EAA9
:10111000064613F1400F4FEA16461FDD13F1200F6C
:10112000DFBF16430A46002120335B42BED0C3F125
:10113000200746EA064602FA07F74FEA164646EA4D
:101140000706C3F1200722FA03F201FA07F721FA92
:1011500003F14FF0000342EA0702A7E746EA02065E
:1011600046EA06464FEA164646EA0106BCBF46EA8C
:101170000646360C4FF000034FF000024FF000011E
:1011800094E72DE9804C9A46934670B491E8380074
:1011900007C831EA400C48BF34EA430C03D5FFF7D7
:1011A000E6FDFFF780FFF0BCBDE8008C2DE9804C28
:1011B0009A46934670B491E8380007C810F0804F03
:1011C00008BF13F0804F03D100F005F8FFF76BFF65
:1011D000F0BCBDE8008C20F07F4780EA030023F0DC
:1011E0007F4C07EB0C03A3F57C5300F00040A3F108
:1011F000FE0392F0000F00F0B38095F0000F00F0B6
:1012000077802DE901494FEA11404FEA144621EA5F
:10121000004800FB06FC24EA064708FB06F607FB2D
:1012200008F800FB07F718EB06484CEB164C4FEAA2
:10123000124B18EB07484FEA15464CEB174022EAD1
:101240000B4E0BFB06FC25EA06470EFB06F607FBDA
:101250000EFE0BFB07F71EEB064E4CEB164C4FF049
:1012600000061EEB074E4CEB174B18EB0B0840F13A
:10127000000018EB0E0B58EB000840F100008F1A2D
:101280004FF000013CBFC943661B14BFB5EB040C13
:1012900000213CBFC943F61B4FEA17444EEA8E0EAD
:1012A00027EA04454FEA1C4704FB07622CEA074C77
:1012B00005FB07F70CFB05F604FB0CFC16EB0746D9
:1012C00042EB174216EB0C4642EB1C421BEB0606A8
:1012D00058EB0202414146EA9E0601D5BDE801896C
:1012E000B619524141EB0101A3F10103BDE80189A7
:1012F0004FEA14454FEA114724EA054621EA074C14
:1013000005FB07F406FB07F70CFB06F105FB0CFCDD
:1013100011EB074144EB17444FEA124711EB0C4124
:1013200044EB1C4422EA074C05FB07F206FB07F7D7
:101330000CFB06F605FB0CFC16EB074642EB1742CE
:1013400016EB0C4642EB1C456A1854F1000148BFED
:101350007047B619524141EB0101A3F101037047F7
:1013600095F0000F37D04FEA11424FEA144721EAB7
:10137000024624EA074C02FB07F106FB07F70CFBC9
:1013800006F402FB0CFC14EB074441EB17414FEA57
:10139000154714EB0C4441EB1C4125EA074C02FBBA
:1013A00007F506FB07F70CFB06F602FB0CFC16EB39
:1013B000074645EB174516EB0C4645EB1C42121948
:1013C00051F1000148BF7047B619524141EB01018C
:1013D000A3F1010370474FEA14454FEA114724EA8D
:1013E000054621EA074C05FB07F106FB07F70CFB56
:1013F00006F24FF0000605FB0CFC12EB074241EB36
:10140000174112EB0C4251EB1C4148BF7047921838
:1014100041EB0101A3F101037047FEE710B5002184
:10142000044801F0C9FBBDE810400421024801F066
:10143000C3BB0000B0010020F8010020014800F00B
:1014400087B90000F0030020014800F081B90000D6
:101450003404002070470000024901200870402039
:1014600000F0DABA0B000020194808B5C16941F054
:101470000201C161C16901F002010091816941F07D
:1014800010018161816901F010010091C16941F091
:101490000401C161C16901F004010091816941F059
:1014A0002001816180693C2100F020000090094802
:1014B00001F0BAF93C21084801F0B6F9054947F2B4
:1014C00030500968486204490968486208BD000054
:1014D00000100240400200208802002072B6FEE7A1
:1014E00070B515480568686A144CA0F5EA403038B4
:1014F000A06003F0D7FB03F059FA114A114B03F037
:1015000057F902F0CBFF606180F0004003F04EFA23
:101510000D4A0E4B03F04CF90D4A0E4B03F048F9FF
:1015200000220D4B02F0ECFF02F0B8FF47F2305101
:10153000E061696270BD0000880200200C0000209C
:10154000BCC77BBCC77B10404AD8124DFB21094069
:101550005839B4C876BEAF3F00004E4070B515484C
:101560000568686A144CA0F5EA403038E06003F082
:1015700099FB03F01BFA114A114B03F019F902F021
:101580008DFF206180F0004003F010FA0D4A0E4BF1
:1015900003F00EF90D4A0E4B03F00AF900220D4B31
:1015A00002F0AEFF02F07AFF47F23051A0616962AB
:1015B00070BD0000400200200C000020BCC77BBCB6
:1015C000C77B10404AD8124DFB2109405839B4C896
:1015D00076BEAF3F00004E4010B590F821100022BB
:1015E000022905D00421816380F82020012010BD4C
:1015F00001680B6823F00E030B6001680B6823F091
:1016000001030B6090F84030C46B012101FA03F331
:10161000636080F8211080F82020104610BD000083
:101620002DE9F05F90F821100024022903D0042155
:101630008163012485E001680A6822F00E020A60D5
:1016400001680A6822F001020A603F4E3E4FB2155F
:10165000DFF8F4C0DFF8F090DFF8ECA0DFF8E8B0D6
:10166000DFF8E4E00168783F13011502ACF1640C87
:10167000A9F15009AAF13C0AABF1280BAEF1140E06
:101680004FF48018B14227D9B9420ED0614512D02B
:1016900049451DD0514518D0594518D0714501D143
:1016A000424615E0294EB14201D1012210E0274EF9
:1016B0001436B14201D110220AE0244E2836B1423C
:1016C00006D0224A3C32914201D11A4600E02A4615
:1016D0001E49091F0A602BE0B94213D0614517D09B
:1016E000494522D051451DD059451DD0714501D1E4
:1016F00042461AE0B14202D14FF0807215E0134E1B
:10170000B14201D1012210E0104E1436B14201D194
:1017100010220AE00D4E2836B14206D00B4A3C3268
:10172000914201D11A4600E02A46074980394A60B1
:10173000012180F82110002180F82010416B01B1B7
:1017400088472046BDE8F09F800002400804024020
:101750002DE9F05FC16B0A6801680B68046C4FF0FB
:10176000040808FA04F8844D844E854FDFF814C24B
:10177000DFF81492DFF814A2DFF814B2DFF814E2F5
:1017800018EA020F65D05FEA437862D50A689206CC
:1017900003D40A6822F004020A60DFF8F0814FF4F3
:1017A0008062016808F1140813011402414524D92C
:1017B000A9420DD0B1420FD0B9421AD0614515D01F
:1017C000494515D0514501D1120312E0594501D1C7
:1017D00004220EE0714501D140220AE06D4D14351E
:1017E000A94206D06B4A2832914201D11A4600E044
:1017F00022466749091F0A6029E0A94213D0B14275
:1018000015D0B94220D061451BD049451BD0514568
:1018100002D14FF4800217E0414502D14FF08062BF
:1018200012E0594501D104220EE0714501D1402258
:101830000AE0584D1435A94206D0564A2832914242
:1018400001D11A4600E022464B4908394A60C16A74
:1018500071E04FF0020808FA04F818EA020F70D09D
:101860005FEA83786DD50A68920606D40A6822F08A
:101870000A020A60012180F82110DFF810814FF47C
:101880000072016808F1140813011402414524D9BB
:10189000A9420DD0B1420FD0B9421AD0614515D03E
:1018A000494515D0514501D1120312E0594501D1E6
:1018B00002220EE0714501D120220AE0354D143597
:1018C000A94206D0334A2832914201D11A4600E09B
:1018D00022462F49091F0A6029E0A94213D0B142CC
:1018E00015D0B94220D061451BD049451BD0514588
:1018F00002D14FF4001217E0414502D14FF00072BF
:1019000012E0594501D102220EE0714501D1202299
:101910000AE0204D1435A94206D01E4A28329142D1
:1019200001D11A4600E02246134908394A600021D5
:1019300080F82010816A00291CD0BDE8F05F0847BC
:10194000FFE70825A540154214D01A0712D50A68EA
:1019500022F00E020A6090F84020C36B012101FAC8
:1019600002F25A60816380F82110002180F8201073
:10197000016BE0E7BDE8F09F080002401C00024058
:101980003000024044000240580002406C00024017
:10199000080402401C04024030B560B11A4B0268D2
:1019A00014219A4209D2194B1344B3FBF1F1890077
:1019B000016417490AE0012030BD134B5B42134418
:1019C000B3FBF1F1890001640F490839C1630221B9
:1019D00080F82110136843F6F0718B43F0E901148D
:1019E0002143D0E902452C43214304692143446942
:1019F000214384692143194311600021416301227D
:101A000042770177084630BD08040240F8FFFDBF69
:101A10000000024070470000044910B50A68024205
:101A200002D00860FFF7F6FF10BD0000140401406B
:101A30002DE9F84FDFF8C8910024A9F1040B2346E3
:101A40000F2709F1040AABF1040ED1E00125A540EE
:101A500006EA0502AA4276D1DFF8A8C14E68A6EBD5
:101A60000C0866452BD00DDC032E34D005DC36B3D4
:101A7000012E19D0022E2FD11BE0112E16D0122EBE
:101A80002AD119E0B8F5881F19D006DCB8F5803FD7
:101A900015D0B8F5801F1FD111E0B8F5001F0ED08A
:101AA000B8F5041F18D10AE0CB6815E0CB681B1D00
:101AB00012E0CB6808330FE0CB680C330CE08B6886
:101AC0002BB1012B4FF0080303D0456104E0042340
:101AD00002E0056100E00023FF2A01D8064601E08C
:101AE00000F104064FEA840501D9A5F12005D6F8D6
:101AF000008007FA05FC28EA0C0803FA05F548EA15
:101B00000508C6F800804D68ED0070D53E4DAE6901
:101B100046F00106AE61AD6924F0030605F001054B
:101B200000953A4D06EB050CDCF80850A607360F79
:101B300007FA06F825EA0805DFF8D480404503D106
:101B40004FF0000825E052E0DFF8C880404502D1A0
:101B50004FF001081DE0DFF8C080404502D14FF092
:101B6000020816E0DFF8B480404502D14FF00308C8
:101B70000FE0DFF8AC80404502D14FF0040808E0E8
:101B8000DFF8A080404502D14FF0050801E04FF09A
:101B9000060808FA06F848EA0508CCF808804D68F7
:101BA000D9F80060ED024D4601D5164300E096439A
:101BB0002E604D68DAF80060AD02554601D5164337
:101BC00000E096432E604D68DBF80060AD035D4693
:101BD00001D5164300E096432E604D68DEF80060A4
:101BE000ED03754601D5164300E096432E60641C54
:101BF0000A681646E2407FF429AFBDE8F88F00007E
:101C000008040140000011100010024000000140D3
:101C100000080140000C0140001001400014014088
:101C200000180140001C01400AB10161704709041D
:101C3000FBE7000001488068704700003C0000207E
:101C400070B5040025D094F83D00002520B984F833
:101C50003C50204600F0B8F8242084F83D0020686D
:101C6000016821F0010101602068016841F4004130
:101C700001602068016821F40041016000F000FA71
:101C80004D4A6168914201D84C4900E04C49884274
:101C900001D2012070BD4B492368B0FBF1F15E68B1
:101CA00026F03F060E435E606368934206D94FF408
:101CB000967359434FF47A73B1FBF3F12368491CCF
:101CC0001E6A26F03F06314319626168914210D8BE
:101CD0004900401EB0FBF1F2521CC2F30B02042A71
:101CE00001D2042022E0B0FBF1F0401CC0F30B0055
:101CF0001CE0A268F2B301EBC10303EB0116431E23
:101D0000B3FBF6F35B1C43F480431B0549D092B34D
:101D100001EBC10202EB0111401EB0FBF1F0401CCF
:101D2000C0F30B0040F4804040F400402168CA69D1
:101D30004CF6FF739A431043C861D4E9071001437E
:101D40002068026822F0C00211430160D4E9030157
:101D500001432068826848F2FF339A43114381604F
:101D6000D4E9050108432168CA6822F0FF02104344
:101D7000C86001E00EE016E02068016841F0010152
:101D800001602564202084F83D00256384F83E50DE
:101D9000002070BD01EB4106431EB3FBF6F35B1C54
:101DA000B3E70120C2E701EB4101401EB0FBF1F0B7
:101DB000401CC0F30B00B7E7A086010080841E0022
:101DC00000093D0040420F0010B586B0002100918F
:101DD00001910291039100680F4988421AD10F4C7A
:101DE000A06940F00800A061A069694600F0080001
:101DF0000490C02000901220019003200390084816
:101E0000FFF716FEE06940F40010E061E06900F4BD
:101E10000010049006B010BD0054004000100240B5
:101E2000000C0140024881680278114481607047CB
:101E30003C000020074810B5016841F01001016026
:101E4000032000F075F80F2000F006F800F024F8E9
:101E5000002010BD0020024070B50D4D04464FF427
:101E60007A712878B1FBF0F00A490968B1FBF0F00B
:101E700000F0DCFA48B9102C07D200222146501E8F
:101E800000F036F800206C6070BD012070BD0000CD
:101E90003C000020480000200C4808B5816941F052
:101EA00001018161816901F001010091C16941F085
:101EB0008051C161C06900F08050009004484168C1
:101EC00021F0E06141F08061416008BD00100240F6
:101ED00000000140002809DB00F01F0201219140B1
:101EE0004009800000F1E020C0F8001170470000B8
:101EF000F0B40E4B1B680C46C3F30223C3F1070575
:101F0000042D00D90425191D072901D2002300E062
:101F1000DB1E012606FA05F1491E214099409E402C
:101F2000761E16403143F0BC02F08DB90CED00E096
:101F3000064900F0070208684FF6FF03184040EA20
:101F40000220034A10430860704700000CED00E0D7
:101F50000000FA052DE9F0470F46050061D0434E19
:101F6000306800F00700B84209D2306820F007005E
:101F700038433060306800F00700B84251D128681B
:101F80003B4C810712D5400703D5606840F4E06000
:101F900060602878000703D5606840F46050606096
:101FA0006068A96820F0F000084360602878C007E6
:101FB00028D06868012810D02168022810D089072D
:101FC00000292EDA616821F0030101436160FFF707
:101FD00031FE804641F288390DE021688903EFE740
:101FE0008901EDE7FFF726FEA0EB0801494502D97C
:101FF0000320BDE8F0876068696800F00C00B0EB72
:10200000810FEFD1306800F00700B8420BD930687B
:1020100020F0070038433060306800F00700B84215
:1020200001D00120E5E72878400705D56068E96818
:1020300020F4E060084360602878000706D56068F7
:10204000296920F4605040EAC100606000F038F86F
:102050006168084AC1F30311515CC8400649086031
:1020600006480068FFF7F8FE0020C2E700200240A3
:1020700000100240D05F000848000020400000200F
:102080000448054900684968044AC1F30221515CCB
:10209000C84070474800002000100240E05F000880
:1020A0000448054900684968044AC1F3C221515CEB
:1020B000C84070474800002000100240E05F000860
:1020C0000E4A51680E4801F00C03042B11D0082B66
:1020D0000FD10C48C1F38343C903C05C0AD55168D2
:1020E000084AC1F34041921E515C054A5043B0FB7F
:1020F000F1F0704704494843704700000010024067
:1021000000127A00C05F000800093D002DE9F84F79
:10211000040070D02078C04DC00749D06868C0F373
:102120008100012807D06868C0F38100022809D126
:102130006868C00306D52868800339D56068002820
:10214000E7D035E06068B0F5803F0BD010B1B0F556
:10215000A02F11D0286820F480302860286820F44F
:10216000802002E0286840F480302860606890B1E8
:10217000FFF760FD06460AE0286840F480202860EA
:10218000F0E700BFFFF756FD801B642873D828686E
:102190008003F7D50CE0FFF74DFD064605E000BFD4
:1021A000FFF748FD801B6428F0D828688003F7D427
:1021B00020789A4E80074FF001094FF0000839D57A
:1021C000686810F00C0F07D06868C0F3810002281F
:1021D00009D16868C00306D42868800714D520692F
:1021E000012808D110E02069B0B1C6F80090FFF7CF
:1021F00021FD074605E00AE1FFF71CFDC01B022890
:10220000C4D828688007F7D52868616920F0F800ED
:1022100040EAC10028600DE0C6F80080FFF70AFD23
:10222000074604E0FFF706FDC01B022823D82868F4
:102230008007F7D4207800072CD57948A169D9B157
:10224000C0F80090FFF7F6FC074604E0FFF7F2FC49
:10225000C01B02280FD8686A8007F7D571484FF471
:10226000FA510068B0FBF1F0009000BF0098411EE9
:102270000091FAD20EE080E0C0F80080FFF7DAFCAF
:10228000074604E0FFF7D6FCC01B022875D8686A31
:102290008007F7D42078400760D5E8690027C000A0
:1022A00008D4E86940F08050E861E869012700F04F
:1022B000805000905C480168C90513D401688346CA
:1022C00041F480710160FFF7B5FC824606E000BF73
:1022D000FFF7B0FCA0EB0A0064284ED8DBF8000042
:1022E000C005F5D5E06801280AD008B1052813D04B
:1022F000286A20F001002862286A20F0040002E029
:10230000286A40F001002862E06841F2883B98B1F9
:10231000FFF790FC82460BE0286A40F00400286238
:10232000EEE700BFFFF786FCA0EB0A0159455AD83B
:10233000286A8007F6D50CE0FFF77CFC824605E0B2
:10234000FFF778FCA0EB0A0159454CD8286A8007B2
:10235000F6D41FB1E86920F08050E861E06988B3E5
:102360006968C1F38101022944D00228C6F860805F
:1023700004D0FFF75FFC044638E034E0FFF75AFC76
:10238000074604E0FFF756FCC01B02282BD828683C
:102390008001F7D4206AB0F5803F05D16868A16854
:1023A00020F4003008436860D4E9080108436968F4
:1023B00021F4741108436860C6F86090FFF73AFC96
:1023C000044606E025E000BFFFF734FC001B0228AE
:1023D00009D828688001F7D51BE000BFFFF72AFC69
:1023E000001B022802D90320BDE8F88F286880016D
:1023F000F4D40EE00128F7D06868226A00F4803136
:10240000914204D1616A00F47010884201D0012029
:10241000EAE70020E8E70000001002400000424226
:1024200080044242480000200070004010B5401E69
:10243000B0F1807F01D3012010BD4FF0E024606136
:102440000F21601701F0FFFE0020A061072020612E
:10245000002010BD7047704710B590F83C20012A4D
:1024600022D0012280F83C20CA688C6822F4407295
:1024700022434C6822F4806222430C6822F40062FA
:1024800022430C6922F4805222434C6922F4005208
:102490002243C969002322F480420A4301684A6446
:1024A00080F83C30002010BD022010BD70B590F8BF
:1024B0003C20012A2CD0012480F83C40022280F8E4
:1024C0003D2003685A689D6822F070060A6832430E
:1024D0005A60104B02689A420ED00F4B9A420BD0B2
:1024E000B2F1804F08D00D4B9A4205D00C4B9A4266
:1024F00002D00C4B9A4204D1496825F0800319435D
:10250000916080F83D40002180F83C10084670BD85
:10251000022070BD002C0140003401400004004046
:1025200000080040000C004010B5040003D094F8EF
:102530003D0010B107E0012010BD002084F83C00F0
:10254000204600F01FF8022084F83D00211D20687D
:1025500001F0C2FB012084F8460084F83E0084F8B4
:102560003F0084F8400084F8410084F8420084F879
:10257000430084F8440084F8450084F83D000020BE
:1025800010BD000008B5174A01681748914207D1ED
:10259000816941F400618161806900F400601EE09E
:1025A000B1F1804F14D0114A914219D1C16941F063
:1025B0001001C161C069002200F0100000901146B6
:1025C0003620FFF795FCBDE808403620FFF782BCB7
:1025D000C16941F00101C161C06900F001000090D2
:1025E00008BD0000002C0140001002400010004017
:1025F00070B5044690F83C000025012817D001264C
:1026000084F83C60022084F83D002068826822F053
:10261000770222F47F4282600868502838D00DDCAF
:1026200020284FD005DC90B3102811D14AE00220B9
:1026300070BD302846D040280AD13BE060282FD01A
:1026400070280DD0B0F5805F03D0B0F5005F12D0D8
:10265000012584F83D60002084F83C00284670BDC8
:10266000CB68D1E90121206801F089FB20688168ED
:1026700041F0770109E0CB68D1E90121206801F040
:102680007EFB2068816841F480418160E1E719E0C8
:10269000CA684968206801F047FC5021206806E0BC
:1026A000CA684968206801F050FC6021206801F088
:1026B00070FBCEE7CA684968206801F035FC40210C
:1026C0002068F4E7226801461046F0E72DE9F04162
:1026D0000D46040003D094F83D0018B108E0012035
:1026E000BDE8F081002084F83C00204600F040F86E
:1026F000022084F83D002068816844F2070291437B
:102700008160211D206801F0E7FA226890689169D4
:10271000166A2B68AF69034340F20330814341EAF4
:102720000721A868EF6908434FF6FC418843E96830
:1027300040EA0720014328692F6A000140EA073078
:10274000084369686D6926F0220646EA05152943A3
:1027500093602268906154F8460B0162012004F8EE
:102760001F09E0752076E0762077A0750020B7E796
:1027700010B586B000210091019102910391244B84
:10278000026824480121244C9A421ED1C26942F0B9
:102790000202C261C26902F002020492826942F03E
:1027A000100282618069029100F010000490C02044
:1027B000009069461948FFF73BF9606820F44060D3
:1027C00040F0E06040F440601FE0154B9A421DD19C
:1027D000C26942F00402C261C26902F004020492BA
:1027E000826942F0200282618069029100F020003B
:1027F00004904FF44050009069460A48FFF718F9DA
:10280000606840F0E06040F48050606006B010BD49
:102810000004004000100240000001400010014090
:10282000000800400014014070B590F83E60044676
:1028300090F83F5090F8423090F84320022021B1A8
:1028400004290ED0012E1BD114E0012E18D1012B2A
:1028500016D184F83E0084F842000122002120684D
:1028600020E0012D0CD1012A0AD184F83F0084F820
:10287000430014E0012D03D1012B01D1012A01D025
:10288000012070BD84F83E0084F83F0084F84200C7
:1028900084F8430001220021206801F063FA01223C
:1028A0000421206801F05EFA2068016841F001010E
:1028B0000160002070BD704770B504460068016972
:1028C0004FF00005C943890715D4C168C94389077A
:1028D00011D4E91E016101202077206880698007FA
:1028E000204602D0FFF7E7FF04E000F0CFF82046D3
:1028F00000F061F9257720680169C943490717D4B9
:10290000C168C943490713D46FF004010161022073
:1029100020772068806910F4407F204602D0FFF7BE
:10292000CAFF04E000F0B2F8204600F044F9257731
:1029300020680169C943090716D4C168C94309075A
:1029400012D46FF008010161042020772068C0696B
:102950008007204602D0FFF7AEFF04E000F096F8B3
:10296000204600F028F9257720680169C943C90687
:1029700017D4C168C943C90613D46FF010010161AF
:10298000082020772068C06910F4407F204602D0DC
:10299000FFF791FF04E000F079F8204600F00BF912
:1029A000257720680169C943C90708D1C168C943AF
:1029B000C90704D1891E0161204600F057F920683B
:1029C0000169C943090609D4C168C943090605D488
:1029D0006FF0800101612046FFF73CFD206801692E
:1029E000C943490609D4C168C943490605D46FF0F3
:1029F00040010161204600F03AF920680169C943AD
:102A000089060BD4C168C943890607D46FF0200139
:102A100001612046BDE87040FFF71DBD70BD00009C
:102A200030B585B000210091019102910391144DC0
:102A300004681449022203231348AC420CD18C6968
:102A400044F004048C618969039301F0040104914A
:102A50008115CDE900120DE0B4F1804F0DD18C69E4
:102A600044F004048C618969009201F00401019230
:102A7000CDE903316946FEF7DBFF05B030BD00004C
:102A8000002C01400010024000080140704770B562
:102A9000044690F83C0000260D4601280FD0012086
:102AA00084F83C006AB1042A1DD0082A2FD00C2AD1
:102AB0003FD00126002084F83C00304670BD022043
:102AC00070BD206801F06EF92068816941F008014D
:102AD00081612068816921F0040181612068816938
:102AE0002A69114311E0206801F08CF9206881699E
:102AF00041F4006181612068816921F48061816114
:102B0000206881692A6941EA02218161D2E720684F
:102B100001F0AEF92068C16941F00801C161206887
:102B2000C16921F00401C1612068C1692A691143AA
:102B300011E0206801F0D0F92068C16941F400611A
:102B4000C1612068C16921F48061C1612068C169E7
:102B50002A6941EA0221C161ACE710B5040003D043
:102B600094F83D0010B107E0012010BD002084F86A
:102B70003C00204600F01EF8022084F83D00211D94
:102B8000206801F0A9F8012084F8460084F83E008E
:102B900084F83F0084F8400084F8410084F8420043
:102BA00084F8430084F8440084F8450084F83D002C
:102BB000002010BD7047704710B50446022249B18D
:102BC00004290ED0082913D094F84100012816D00A
:102BD000012010BD94F83E000128F9D184F83E2070
:102BE0000FE094F83F000128F2D184F83F2008E07C
:102BF00094F840000128EBD184F8402001E084F8EB
:102C000041200122206801F0ADF813492068134AE1
:102C1000884201D0904203D1436C43F400434364A3
:102C2000206888420DD090420BD0B0F1804F08D080
:102C30000B49884205D00B49884202D00A49884294
:102C400004D1816801F00701062903D0016841F031
:102C500001010160002010BD002C01400034014042
:102C60000004004000080040000C0040704770471E
:102C700070477047F8B5016804460868CA684B6930
:102C800010F00F0F4FF0000559D003F0010602F4C9
:102C90009077374365D0C10705D0D10503D5616C66
:102CA00041F001016164410705D5D90703D0616C8A
:102CB00041F002016164810705D5D90703D0616C39
:102CC00041F004016164010707D502F0200131439E
:102CD00003D0616C41F008016164616C00293AD055
:102CE000800604D5900602D5204601F06FF92068D1
:102CF0004069616CC0F38010090700D460B32046BE
:102D000001F03DF920684069400621D52068143063
:102D100050E8001F21F0400140E80012002AF5D1E0
:102D2000E06BA8B16D494163E06BFEF779FC0028C8
:102D300011D0E06B416B01B0BDE8F040084783065D
:102D40000FD593060DD52046BDE8F84001F03EB9F9
:102D50002046FFF78EFFF8BD2046FFF78AFF656427
:102D6000F8BD266B2023012E7CD1C6067AD5D60667
:102D700078D508684868009048694FF00206400618
:102D800040D5E16B086840680004000CE8D0A28DD3
:102D90008242E5D9E085886920282DD020680C3052
:102DA00050E8001F21F4807140E80012002AF5D19C
:102DB0002068143050E8001F21F0010140E80012A3
:102DC000002AF5D12068143050E8001F21F040019E
:102DD00040E80012002AF5D184F8423025632068CB
:102DE0000C3050E8001F21F0100140E80012002ACA
:102DF000F5D1E06BFEF7F0FB6663A08DE18D401A24
:102E000081B22AE0A08DE18D401A81B2E08D0028C8
:102E1000A6D00029A4D022680C3252E8000F20F47A
:102E2000907042E80007002FF5D12068143050E878
:102E3000002F22F0010240E80027002FF5D184F88E
:102E40004230256320680C3050E8002F22F0100239
:102E500040E80023002BF5D166632046FFF708FF0A
:102E6000F8BDFFE705062BD5150629D594F84100D6
:102E70002128F5D1A068B0F5805F01D12069B0B1FB
:102E8000206A411C2162216800784860E08C401E65
:102E90000004000CE084E3D12068C16821F08001C7
:102EA000C1602068C16841F04001C160D8E7206A74
:102EB0000088C0F308004860206A801C2062E5E7B3
:102EC0004006CDD55006CBD5CA68204622F0400238
:102ED000CA6084F8413000F09EF9C1E76F3F0008F6
:102EE00070B5040004D094F84100002510B106E04C
:102EF000012070BD84F84050204600F023F82420C3
:102F000084F841002068C16821F40051C160204666
:102F100001F0BEF82068016921F490410161206848
:102F2000416921F02A0141612068C16841F40051E2
:102F3000C1606564202084F8410084F84200656324
:102F4000002070BDF0B585B0002400940194029477
:102F50000394064603685C48DFF868C14715022100
:102F600003225A4D634525D1836943F4804383612D
:102F7000836903F480430493836943F0040383610A
:102F80008069CDE9007100F00400CDE903206946B5
:102F90002846FEF74DFD2815CDE900046946284670
:102FA0000294FEF745FD002201212520FEF7A0FF37
:102FB000252029E0DFF818C1634529D1C36943F40E
:102FC0000033C361C36903F400330493836943F09E
:102FD000040383618069039200F0040004900420DC
:102FE000CDE9000169462846FEF722FD0820CDE91B
:102FF0000004694628460294FEF71AFD00220121CA
:103000002620FEF775FF2620FEF764FF05B0F0BD11
:10301000304DAB42FAD1C36943F48023C361C36925
:1030200003F480230493836943F020038361806960
:10303000039200F020000490A815CDE90001264D70
:1030400069462846FEF7F4FCCDE900746946284637
:103050000294FEF7EDFC2148416821F0300141F077
:10306000E06141F0300141601E4D1D48802701C5DF
:10307000102091C51B4845F810496C61AC61EC61AA
:10308000FEF78AFC08B1FEF729FAB5636E62154DAA
:10309000134844351430C5E90004C5E902472C61E2
:1030A0006C61AC612846EC61FEF776FC08B1FEF776
:1030B00015FAF5630022012127206E62FEF718FF42
:1030C0002720A1E70038014000100240000801401D
:1030D000004400400048004000140140000001404E
:1030E0001C000240F003002090F84230202B01D059
:1030F0000220704721B11AB10023036301F024B804
:103100000120704770B5054600681649164E174CE9
:1031100088420ED13078207000F0ACFC642301228C
:103120002146134800F02AF8012231461048FFF7E3
:10313000DBFF10492868884212D13078607000F0B7
:1031400099FC0A4964230122491C0B4800F016F837
:10315000BDE8704005490122891C0748FFF7C4BF3C
:1031600070BD0000003801405800002036000020EB
:103170001803002000480040A80300202DE9F84370
:10318000044690F841001F4616460D46202802D0FE
:103190000220BDE8F8837DB176B100206064212073
:1031A00084F84100FEF746FDA6848046E684A068C8
:1031B000B0F5805F02D003E00120EAE7206910B19A
:1031C0002E4600250EE000260CE08021204600F06F
:1031D000D6FFA0B9AEB116F8010B21684860E08CAB
:1031E000401EE084E08C43464FF000020097002828
:1031F000EBD14FF04001204600F0C1FF30B1032079
:10320000C7E735F8020BC0F30800E6E7202084F892
:1032100041000020BDE77047FEE700000D4808B5FB
:10322000416941F0010141614069002200F0010063
:10323000009011460C20FEF75BFE0C20FEF74AFEC4
:10324000002211460D20FEF753FEBDE808400D2078
:10325000FEF740BE001002402DE9F04F85B000247B
:1032600052480094019402940394816941F0400112
:103270008161816901F040010491816941F004019B
:103280008161816901F004010491816941F01001BB
:103290008161816901F010010491816941F020018F
:1032A0008161816901F020010491816941F480719B
:1032B0008161816901F480710491816941F00801A3
:1032C00081618069DFF8E88000F008000490012245
:1032D00020214046FEF7A8FCDFF8D89000225021BC
:1032E0004846FEF7A1FC0122A0214846FEF79CFCBF
:1032F000DFF8C4A00022C0215046FEF795FCDFF89D
:10330000BCB0012220215846FEF78EFC2027022661
:10331000012500970396CDE9015469464046FEF722
:1033200087FB402000902648CDE9010569464046CC
:10333000FEF77EFBCDE90054694648460296FEF74B
:1033400077FBF020CDE900050320CDE90240694676
:103350004846FEF76DFB10208DE83100694619489C
:10336000FEF766FBC020009001AA112082E8310020
:1033700069465046FEF75CFB3A208DE8310069460D
:103380001148FEF755FB00970396CDE901546946B5
:103390005846FEF74DFB002211461720FEF7A8FD08
:1033A0001720FEF797FD05B0BDE8F08F0010024032
:1033B000001801400008014000200140000C0140BD
:1033C0000000111000100140001401400D4810B51C
:1033D0000B4901600C49416000214FF4804281603B
:1033E000C0E9031241618161C1610162FEF728FCFD
:1033F000002803D0BDE81040FEF770B810BD0000F3
:10340000005400405C010020801A060010B596B000
:1034100000240F9410941194129413941C2108A862
:103420001494FDF70CF820216846FDF708F82948A8
:10343000274901604721C0E9011440F2E731C0E9A2
:10344000031444618461FFF76FF808B1FEF746F892
:103450004FF480500F900FA91E48FFF7C9F808B12C
:10346000FEF73CF81B48FFF778FB08B1FEF736F88B
:10347000139413A917481494FFF718F808B1FEF72E
:103480002DF8602008904FF41670CDE909040B94D4
:103490000C940D94002208A90E480E94FFF7F7FA39
:1034A00008B1FEF71BF800944FF40050CDE904403A
:1034B000029401940394694606480794FEF7CCFFF2
:1034C00008B1FEF70BF80348FFF7AAFA16B010BDD3
:1034D000002C0140B001002010B58EB000240794EC
:1034E000089409940A940B941C2168460C94FCF7E8
:1034F000A6FF1F484FF0804101604721C0E9011439
:1035000040F2E731C0E903148461FFF70DF808B118
:10351000FDF7E4FF4FF48050079007A91448FFF728
:1035200067F808B1FDF7DAFF1148FFF716FB08B19D
:10353000FDF7D4FF0B940BA90D480C94FEF7B6FFD2
:1035400008B1FDF7CBFF602000904FF41670CDE975
:1035500001040422694606480494FFF798FA08B16A
:10356000FDF7BCFF0248FFF75BFA0EB010BD00008C
:10357000F801002010B58CB024216846FCF75FFFED
:1035800000241648099414490A94C0E900144FF61F
:10359000FF71C0E90241046184610320CDE90004A8
:1035A0000120CDE902040494CDE905400794694661
:1035B0000A480894FFF78AF808B1FDF78FFF0994CD
:1035C00009A906480A94FEF771FF002801D0FDF70B
:1035D00085FF0CB010BD0000000400404002002038
:1035E00010B58CB024216846FCF729FF002416484A
:1035F000099414490A94C0E900144FF6FF71C0E918
:1036000002418021046181610320CDE90004012091
:10361000CDE902040494CDE90540079469460A48BF
:103620000894FFF753F808B1FDF758FF099409A96A
:1036300005480A94FEF73AFF002801D0FDF74EFF37
:103640000CB010BD00080040880200201CB500240A
:103650000E4800940C49019401604721C0E901140F
:1036600042F20F718461C160FEF75EFF08B1FDF7A1
:1036700035FF0094694605480194FEF717FF0028BE
:1036800001D0FDF72BFF1CBD00100040D002002030
:103690000C4810B50A4901604FF4E1314160002146
:1036A00081600C22C160C0E904128161C161FFF731
:1036B00017FC002803D0BDE81040FDF70FBF10BD78
:1036C00000380140180300200C4810B50A49016079
:1036D0004FF4E1314160002181600C22C160C0E9FA
:1036E00004128161C161FFF7FBFB002803D0BDE834
:1036F0001040FDF7F3BE10BD004400406003002001
:103700000C4810B50A4901604FF416414160002190
:1037100081600C22C160C0E904128161C161FFF7C0
:10372000DFFB002803D0BDE81040FDF7D7BE10BD79
:1037300000480040A8030020FEE7000070B50C46DA
:10374000050001D0002000E0012000F051FA0CB18A
:10375000002000E0012000F063FA284601F0BAFAE8
:1037600001460022064800F021FA204601F0B2FA94
:10377000BDE8704001460422024800F017BA00007C
:10378000B0010020F8010020FEE770B50024002100
:10379000204600F0D4F80025002000F05AF96D1CF6
:1037A000EDB2802DF8D3641CE4B2082CEFD370BDC9
:1037B00010B5064C012240212046FEF735FA20467E
:1037C0000122BDE810408021FEF72EBA0020014002
:1037D0002DE9F0410024124E0746802525FA04F217
:1037E0003A4080213046FEF71FFA01224021304640
:1037F000FEF71AFA002240213046FEF715FA641C43
:10380000E4B2082CEAD3012240213046FEF70CFA3C
:103810003046BDE8F04100224021FEF705BA000025
:103820000020014010B50B4C012280212046FEF7FC
:10383000FBF9012240212046FEF7F6F90022802103
:103840002046FEF7F1F920460022BDE81040402155
:10385000FEF7EAB90020014010B5094C0022802192
:103860002046FEF7E1F9012240212046FEF7DCF96F
:1038700020460122BDE810408021FEF7D5B90000A6
:103880000020014010B500204FF47A720021491C3D
:103890009142FCD3401C9042F8D3FFF789FFAE2041
:1038A00000F0C6F8D52000F0C3F8802000F0C0F882
:1038B000A82000F0BDF83F2000F0BAF8D32000F0B7
:1038C000B7F8002000F0B4F8402000F0B1F8A120D3
:1038D00000F0AEF8C82000F0ABF8DA2000F0A8F84D
:1038E000122000F0A5F8812000F0A2F8CF2000F00F
:1038F0009FF8D92000F09CF8F12000F099F8DB2027
:1039000000F096F8302000F093F8A42000F090F832
:10391000A62000F08DF88D2000F08AF8142000F029
:1039200087F8AF2000F084F8BDE81040FFF72DBF06
:103930000246012000E05043491EFCD2704710B5FA
:103940000C4640F0B00000F073F8102040EA14106C
:1039500000F06EF804F00F00BDE8104000F068B809
:103960002DE9F0410746CE004000083E801E154676
:103970004FF0FF38F1B2C0B2FFF7E1FF1148002469
:1039800000EB05152819A0F5805090F8000E00F006
:1039900060F8641CE4B2082CF4D308EB4700F1B2E1
:1039A000C0B2FFF7CCFF00242819A0F5805090F892
:1039B000080E00F04EF8641CE4B2082CF4D3BDE805
:1039C000F08100004E5000082DE9F04700241D460C
:1039D0001646884681460A2713E0291B0A20491EFD
:1039E000FFF7A6FFB6FBF0F0B0FBF7F107FB110203
:1039F00008EB0400C1B248463032FFF7B1FF641C47
:103A0000E4B2AC42E9D3BDE8F0872DE9F0411546B8
:103A10000E460746002406E03019C1B23846FFF7CB
:103A20009FFF641CE4B22A5D002AF5D1BDE8F08155
:103A300010B50446FFF7F6FE7820FFF7C9FE002018
:103A4000FFF7C6FE2046FFF7C3FEBDE81040FFF7B4
:103A500003BF10B50446FFF7E5FE7820FFF7B8FE78
:103A60004020FFF7B5FE2046FFF7B2FEBDE810404C
:103A7000FFF7F2BE70B5274C88B02146A6794A7987
:103A8000511CCBB22449002526B1012E08D0022EAC
:103A90001AD007E0FE2805D10120A071FE200FE01A
:103AA000BC280AD06571A5715FF0000021F81050A4
:103AB000401C0628FADB08B070BD0220A071BC20B3
:103AC00021F812006371F6E7EF280DD021F81200FB
:103AD0006371062BEFD16571A571002021F810509C
:103AE000401C0628FADBE6E701EB420010F8021C56
:103AF000A17010F8041C617010F8062C22707F2A47
:103B000001DDA2F5807205A16846FCF78FFB6571A7
:103B1000A571D0E7000000204C00002025640000C3
:103B20002DE9F0410B4604461146184601F018FAFB
:103B3000054620F00040A16901F0E0F807D22846D0
:103B4000216A01F00FF9216900F05CFF2061E16951
:103B5000206901F0D3F906D3E069216980F00040C3
:103B600001F0CCF901D2E06920612846E16801F05A
:103B7000F7F9216A00F0B4FF0146A06801F0F2F8FD
:103B800007462169606801F0EDF80646294620687D
:103B900001F0E8F8314600F035FF394600F032FF19
:103BA0006061BDE8F08170477047000070B50B465A
:103BB0000D49144605468B4200DD0B46184600F0C1
:103BC0008FFF0A4901F0CEF801F04CF829682CB1BA
:103BD000042C05D0082C05D0086470BD486370BD66
:103BE000886370BDC86370BD0000C84200007A449D
:103BF00010B50A4C58B1012210212046FEF714F8E6
:103C000000222046BDE810402021FEF70DB800221A
:103C100010212046FEF708F80122F2E700080140D3
:103C200010B50A4C58B1012240212046FDF7FCFF97
:103C300000222046BDE810408021FDF7F5BF00229C
:103C400040212046FDF7F0FF0122F2E70008014085
:103C500004490888401C088003490888401C0880E3
:103C6000FEF7E0B8340000203A00002030B58FB0F5
:103C700028216846FCF7E3FB14210AA8FCF7DFFBC8
:103C800001210804CDE900100024029402250491CA
:103C9000CDE907504FF4E01009906846FEF736FA78
:103CA00008B172B6FEE70F20CDE90A054FF4806037
:103CB000CDE90C4002210AA80E94FEF74BF900282A
:103CC00001D072B6FEE70FB030BD70470148FEF775
:103CD000F3BD0000D0020020F0B502681C4B1D4D62
:103CE0001D4E1E4F1E4C4FF0804C984209D0A042F2
:103CF00007D0604505D0A84203D0B04201D0B842F9
:103D000004D122F0700E4A6842EA0E02984209D0AD
:103D1000A04207D0604505D0A84203D0B04201D0F0
:103D2000B84203D122F44075CA682A434D6922F093
:103D300080022A4302608A68C2620A6882629842EC
:103D400001D0A04201D10969016301214161F0BDA7
:103D5000002C01400004004000080040000C00401E
:103D60000034014010B501F01F030121046A99409D
:103D70008C430462016A9A401143016210BD10B580
:103D8000846842EA032224F47F440A432243826087
:103D900010BD826822F070020A4342F00701816080
:103DA00070470000F0B5036A026A22F00102026265
:103DB00042688469124E24F073050C682C4323F08A
:103DC00002058B682B430D4DA84201D0B04205D1AE
:103DD00023F00807CB683B4323F00403A84201D03B
:103DE000B04205D14D6922F4407215438A692A43D5
:103DF00042608461496841630362F0BD002C014068
:103E000000340140F0B5026A036A23F01003036234
:103E1000436884690D6824F4E64444EA05248D6807
:103E200022F0200242EA05120F4D104EA84201D0A6
:103E3000B04206D1CF6822F0800242EA071222F097
:103E40004002A84201D0B04207D14D6923F440633B
:103E500043EA85038D6943EA8503436084614968C9
:103E600081630262F0BD0000002C0140003401407B
:103E7000F0B5026A036A23F4807303624368C4697D
:103E800022F4007224F073050C68124E2C438D68E6
:103E900042EA05220E4DA84201D0B04206D1CF68B9
:103EA00022F4006242EA072222F48062A84201D092
:103EB000B04207D14D6923F4405343EA05138D699D
:103EC00043EA05134360C4614968C1630262F0BDFF
:103ED000002C01400034014030B5046A026A22F42B
:103EE000805202624268C3690D6823F4E64343EAE4
:103EF00005238D6824F4005444EA0534084DA84293
:103F000002D0084DA84204D14D6922F4804242EA11
:103F100085124260C36149680164046230BD0000DB
:103F2000002C01400034014010B5036A046A24F0FB
:103F300001040462846924F0F00444EA021423F0CA
:103F40000A020A438461026210BD10B5036A046A62
:103F500024F010040462846923F0A00324F4704464
:103F600044EA023243EA01118261016210BD10B5D8
:103F7000406A0021C185C184FEF77BFE10BD016847
:103F80000C3151E8002F22F4907241E80023002BFD
:103F9000F5D10168143151E8002F22F0010241E807
:103FA0000023002BF5D1016B012909D101680C31E7
:103FB00051E8002F22F0100241E80023002BF5D138
:103FC000202180F8421000210163704708B590F865
:103FD0004210222901D0022008BD82684FF480538C
:103FE0009A4201D1016921B1816A9A421BD04AB13A
:103FF0000AE00268816A5268C2F308020A80816A94
:10400000891C08E0026972B10268526802F07F02FE
:104010000A70816A491C8162C18D491E0904090C1C
:10402000C18503D01BE002685268F1E70168CA68E5
:1040300022F02002CA600168CA6822F48072CA6055
:1040400001684A6922F001024A61202180F8421089
:1040500000214163026B012A03D0FFF753F80020CF
:1040600008BD016301680C3151E8002F22F01002F5
:1040700041E80023002BF5D101680A68D20602D579
:104080000A6849680091818DFEF7F2FDE7E70000BC
:1040900070B5044600680169E26821F4405111439B
:1040A00001612169A0680843616908432168CA6801
:1040B00041F20C639A430243CA6020684169A269D5
:1040C00021F44071114341611E492068884202D1A8
:1040D000FDF7E6FF01E0FDF7D3FF00EBC00101EBC8
:1040E0000012606864218000B2FBF0F3B3FBF1F3CF
:1040F0006FF018067343B2FBF0F5B2FBF0F605EB78
:104100008305322303EB0515B5FBF1F5B6FBF1F69C
:1041100005F0F00505EB0615B2FBF0F6B2FBF0F08A
:10412000B0FBF1F06FF01802504306EB800003EB98
:104130000010B0FBF1F0216800F00F002844886007
:1041400070BD00000038014081628285C285002177
:104150004164222180F84210016921B10168CA68D6
:1041600042F48072CA6001684A6942F001024A6101
:104170000068C16841F02001C160002070472DE94E
:10418000F041984617460E460446069D27E0681CF7
:1041900025D02DB1FDF74EFDA0EB0800A8421ED999
:1041A00020680C3050E8001F21F4D07140E8001264
:1041B000002AF5D12068143050E8001F21F00101D9
:1041C00040E80012002AF5D1202084F8410084F84C
:1041D0004200002084F840000320BDE8F081206800
:1041E000006836EA000004D00020B842CFD000209A
:1041F000F3E70120F9E700000148FEF73BBD0000AE
:10420000180300200148FEF735BD000060030020C0
:104210000148FEF72FBD0000A8030020FEE749007B
:1042200050EAC12018BF04204A0D18BF40F0010019
:1042300040F2FF72B2EB515F08BF40F0020001286C
:1042400008BF052070470907090E002804DB00F1AC
:10425000E02080F80014704700F00F0000F1E0202B
:1042600080F8141D704730380A2801D201207047A9
:10427000002070470148C068704700000C00002013
:10428000AEB05F4806905F484FF0000ACDE9070ADC
:104290005D490A915D49CDF824A0CDE90CA15C48A7
:1042A000CDF82CA00E90FDF7C5FDFFF7DFFCFEF763
:1042B000D3FFFEF7B3FFFFF7EBF9FFF721FAFFF7A4
:1042C0000BF9FFF757F9FFF7A1F8FFF77FF8FFF7B2
:1042D00087F9FFF7F9F9FFF7B9F9002220214D48D6
:1042E000FDF7A2FCFDF7C0F8FDF798F8FFF7CAFA52
:1042F000494C002221464948FFF758FC0422214638
:104300004748FFF753FC002220214648FDF78CFC6C
:10431000012245494548FEF7E7FE01224449454848
:10432000FEF7E2FE2022444926A8FCF756F80123B6
:104330001A4619461846FFF747FB3D48801E8188FC
:104340000A29FAD3A0F804A0FDF708F90746FDF7FB
:10435000C7F80646FFF78EFF384600F027FB8B466E
:1043600005465B462A4635A11CA8FBF75FFF304691
:1043700000F01CFB8946044622464B4632A121A888
:10438000FBF754FF012121AA0846FFF73EFB1CAAB8
:1043900001210220FFF739FB3A464FF07C5739469E
:1043A00006A8FFF7BDFB80463246394606A8FFF750
:1043B000B7FB0746404600F055FC86B2384600F091
:1043C00051FC80B23146FFF7B9F9384600F0EEFAF9
:1043D00006460F46404600F0E9FA844603918DE810
:1043E00010125B462A461BA10FA8CDE90467FBF714
:1043F0001DFF32231A460FA91C48FEF7BFFE9CE79B
:1044000000803B4500007A4400009643CDCCCC3D73
:104410000AD7233C000C014000004842B0010020B4
:10442000F801002000180140580000201803002067
:1044300038000020A8030020A05F000852696768C8
:10444000743A20252E3366004C6566743A20202588
:104450002E33660073706565643A25662C202566E8
:104460002C2025662C2025660A0000006003002011
:1044700010B500290AD00878002807D005487844EC
:10448000FCF7BCFB002801D0002010BD0248784496
:1044900010BD00001E1C0000161C000021F0004290
:1044A000A2F16052B2F5801F01F0004328BFD2F1A3
:1044B0007F6C0BD95FEA001C43EAC20242EB5070EA
:1044C00018BF704728BF20F001007047B2F5801F69
:1044D000BCBF184670474FEA410C1CF5001F02D2C2
:1044E000084600F006BD70B500F00CFA0000008927
:1044F000FFF7F6BF4FF00040A0F5800070470000C6
:104500002DE9C04130B4DFF8A0C23CEA111418BF55
:104510003CEA131400F0EC8081EA03051CEA111454
:1045200044EAD57418BF1CEA131500F0C780A4EB49
:1045300005044FF0004545EAC12145EAC32341EA9D
:10454000505143EA525304F17F74994204F5003408
:104550004FEAC0204FEAC22208BF904200F09C8080
:104560004FEA13650FF24016765D4FEA134506FBDE
:1045700005F7C7F1807706FB07F74FEAD737A7FBA8
:1045800003687642C8F58038A7FB06CE38BFA8F18D
:10459000010807FB08E64FF0000EA6FB028CE6FBC5
:1045A00003CEDCF1000CCEF1004E38BFAEF1010EAF
:1045B000A6FB0C584FF000074FF00005E6FB0E87F6
:1045C000A1FB08C6A0FB07CE16EB0E0645F10005C1
:1045D000E1FB076515F1E04E7EBFA4F580345FEA8C
:1045E00046066D4116F1800745F100054FEA172791
:1045F0004FEA066647EA0567A6F1DE46B6F1805F38
:104600004FEA15251FD9384624F0010C05EBC4717B
:10461000BCF1FE6F01EB0C1102D8F0BCBDE80081CB
:1046200024425CBF01F5801E9EEAC47F02D4F0BC28
:10463000BDE80081244238D4F0BCA1F1C041BDE8FE
:10464000004100F0ADB94FEAD22242EA43524FEAAC
:10465000D323A7FB02864FEAD02040EA415007FB54
:1046600003661EEA0E0F4FEAD12105FB026658BF12
:10467000A6EB0056B6EB00564FEA520E4EEAC37E4A
:1046800018EB0E0E56EB530EBDD518EB02085E412B
:104690007F1C55F10005B6E74FF480154FF0000779
:1046A0004FF000064FF00008ADE7F0BC4FF00000FF
:1046B00001F1C04101F00041BDE8008111EA0C1F89
:1046C0000CEA131500D00CE013EA0C1F00F0258053
:1046D0004FF00000F0BC81EA030101F00041BDE8A9
:1046E0000081F0BCBDE8004181EA030100F058B947
:1046F000F0BCBDE8004170B500F004F9097EFC3E55
:1047000000F007B881EA03014FF0000001F000411A
:10471000704781EA030100F043B9F0BCBDE80041F5
:104720004FF0000021497047FFFDFBF9F7F5F4F267
:10473000F0EEEDEBE9E8E6E4E3E1E0DEDDDBDAD83C
:10474000D7D5D4D3D1D0CFCDCCCBCAC8C7C6C5C49A
:10475000C2C1C0BFBEBDBCBBBAB9B8B7B6B5B4B3B1
:10476000B2B1B0AFAEADACABAAA9A8A8A7A6A5A49C
:10477000A3A3A2A1A09F9F9E9D9C9C9B9A99999860
:104780009797969595949393929191908F8F8E8E03
:104790008D8C8C8B8B8A8989888887878685858490
:1047A00084838382828181800000FF070000F87F7C
:1047B000DFF848C170B51CEA111E1EBF1CEA1315B4
:1047C0009EEA0C0F95EA0C0F00F06F8081EA03045B
:1047D00023EA4C134EEAD47E21EA4C1141F48011B5
:1047E00043F48013AE44A1FB024CA0FB0365AEF181
:1047F0007F7E361955EB0C05A1FB034C4CF10003F1
:10480000A0FB021C16EB0C06654153F100030942A4
:1048100018BF46F0010613F4007F0BD14FEA0331B5
:104820004FEA0530340341EA155140EA16506FF063
:1048300003020AE04FEAC3214FEAC520F40241EA2D
:10484000555140EA56506FF0020202EB2E4201EB46
:10485000025585EACE710AD05FEA440C18BF24F0F5
:10486000004450F1000041F1000120EAD47040F210
:10487000FE7C624500D270BDA84214BF4FF0804458
:104880004FF04044002E08BF0024BEF1806FA8BF47
:10489000A1F1C041BDE8704080F282804FF000007D
:1048A00001F1C04101F0004170479EEA0C0F0CEA93
:1048B000131518BF95EA0C0F06D04FF0000081EADF
:1048C000030E0EF0004170BD00F01CF88900013E9F
:1048D00000F007B800F009B84FEA430C5FEA5C5CEF
:1048E00008D081EA030100F05BB84FEA410C5FEAAF
:1048F0005C5CF6D14FF00000014970470000FF07F3
:104900000000F87F0EF1020E2EF0030E5EF8046B2D
:10491000364205D4012A43EB030515F5001F12D8D2
:10492000012841EB010C1CF5001F0CD80ED14FEAF9
:10493000D17C15F5001F0CEB4C0C0CF1020C08BFE0
:104940004CEBD37C04E04FF0080C01E04FEAD37C41
:104950000CEB4C0526FA05F606F00706B6F1040C3A
:1049600006D20EEB860CBDE870404CF0010C60479F
:10497000DFE80CF0090B02024FF000414FF000009D
:10498000A1F5002170BD19461046012851EB010424
:1049900018BFD4F5001484BF002001F0004170BDA1
:1049A0000808A0F500114FEA3101704743004FEAB3
:1049B000D30C4FEA3C0C43401FBF40070CF1605141
:1049C00013F0FE4F70471CF0006F03D100200CF075
:1049D000004170470CF0004343EA507010B540EAC4
:1049E000CC0000F040FA00BF000000924FEA000146
:1049F000FFF7D6BF4FF000414FF00000A1F50021B6
:104A00007047000090EA010F48BF81F0004100F1BB
:104A1000AE82421A3CBF801A89184FEAD0524FF03A
:104A20007F4C1CEA410FA2EBD15318BF9CEA026FE6
:104A300000F03B804FF0004C4CEA00204CEA012192
:104A400021FA03FC10EB0C0C1ED202F1FF325FEADC
:104A50001C2040EBC25038BF70471CF07F0F4FEA5C
:104A6000400C18BFBCF17F4F38BF7047C3F1200323
:104A7000994008BF20F00100BCF17F4F38BF70475C
:104A8000A0F1C04000F035BA4FEA3C00000A40EB0C
:104A9000C25028BF1CF0FF0F4FEA400CE6D018BFF1
:104AA000BCF17F4F38BF7047EAE79CEA026F05D040
:104AB00010EA5C0F08BF00F00040704710B500F02E
:104AC000D2F900BF64FBBE3E401058BFC0F1404069
:104AD000491058BFC1F140418142EFF30080704757
:104AE0004FF47F0C1CEAD0121EBF1CEAD11392EACD
:104AF0000C0F93EA0C0F00F0858090EA010F48BF7D
:104B000042F4807240F4000C41F400002CF07F412C
:104B100020F07F4000B58142A2EB03020FF2081C97
:104B2000ACEB504EC0F100009EF800E04FEA4E0E94
:104B300000FB0EFC38BF49004FEA2C1C02F5FA02BC
:104B40000CFB0EF34FEACE1E4FEA112C4FEAC121A7
:104B50000EEB635E42EB22420EFB0CFC4FEA1C5351
:104B600000FB03114FEA112C4FEA01310EFB0CFC44
:104B70004FEADC4C00FB0C11C14228BF09184CEB7A
:104B800003335DF804EB10EB410143EBC250B2F587
:104B90007C0F38BF704729D512F0F00F1CBF00F111
:104BA000C04000F000407047008182838485868782
:104BB00088898B8C8D8E8F919293959697999A9CDC
:104BC0009D9FA0A2A3A5A7A8AAACAEB0B2B3B5B74B
:104BD000B9BCBEC0C2C5C7C9CCCED1D4D7D9DCDF21
:104BE000E2E6E9ECF0F3F7FAFE0000004FEA400CD1
:104BF0000CF1807CBCF17E4F28BF7047B0F1C04003
:104C000000F077B990EA010F0CEAD11348BF42F4E3
:104C10008072624538BF634507D213F47F0F16D008
:104C200080EA010000F00040704710B500F01BF969
:104C3000097EFC3E00F005B880EA010000F000406B
:104C4000704780EA010000F0004000F052B912F411
:104C50007F0F04BF0248704780EA010000F049B9A5
:104C60000000C07FC10DD1F19E0206DB4FEA002398
:104C700043F0004323FA02F07047004207D54FEAA1
:104C80004001B1F1FE4F02D24FF00000704710B565
:104C900000F0E9F849922480002070476FEA200074
:104CA0007047000010F0004148BF4042B0FA80F366
:104CB00010FA03F2C3F19D030BD051EAC35101EB8B
:104CC0001220530638BF704700F1010008BF20F0E2
:104CD00001007047B0FA80F310FA03F2C3F19D03AC
:104CE0000AD0D90501EB1220530638BF704700F1F6
:104CF000010008BF20F001007047000050EA010CDD
:104D000000F113801CF5000F58BFBCF5000F01D453
:104D10008842704707D710F5000F58BF11F5000FF4
:104D200015D488427047894270471CF5000F04D59E
:104D3000BCF5000FF7D5814270474FF0807C1CEB2B
:104D4000400F38BF1CEB410F01D28142704710B5B4
:104D500000F089F8922449004FF000504FF0805144
:104D6000FFF7B2BE4FF47F0C1CEAD0121EBF1CEA44
:104D7000D11392EA0C0F93EA0C0F00F0478090EAEF
:104D8000010F48BF42F480724FF0004C4CEA002003
:104D90004CEA012102EB0302A0FB0113A2F5000281
:104DA000002918BF43F001035B0028BF4FEA33031B
:104DB00042EB22425FEA132C4CEBC2502EBFBCEBFD
:104DC000436FB2F57C0F70474FEA036CBCF1004FA4
:104DD00008BF20F00100B2F57C0F38BF70470BD53B
:104DE00082F0FF0212F5803FC8BF704700F1C0405B
:104DF000D8BF00F00040704700F5000C5FEA4C0C93
:104E000048BF7047B0F1C04000F073B890EA010F9E
:104E10000CEAD11348BF42F48072624538BF634543
:104E200004D280EA010000F00040704710B500F0A5
:104E30001AF800BF8900013E00F007B800F009B879
:104E40005FEA410C5FEA1C6C08D080EA010000F0C8
:104E500050B85FEA400C5FEA1C6CF6D14FF000409E
:104E6000A0F5800070470EF1020E2EF0030E5EF8E2
:104E7000044B244204D44FEA4102B2F17F4F11D8CF
:104E80004FEA4003B3F17F4F0CD80ED14FEAD07CEC
:104E9000B2F17F4F0CEB4C0C0CF1020C08BF4CEB49
:104EA000D17C04E04FF0080C01E04FEAD17C0CEB20
:104EB0004C0324FA03F404F00704B4F1040C06D202
:104EC0000EEB840CBDE810404CF0010C6047DFE8AD
:104ED0000CF0070802024FF00040A0F5800010BD62
:104EE0000846420018BFD2F1807288BF00F000402F
:104EF00010BDFF2141EAD050C005704751EA000CB7
:104F000000F113801CF5000F58BFBCF5000F01D451
:104F10008142704707D711F5000F58BF10F5000FF9
:104F200015D481427047894270471CF5000F04D5A3
:104F3000BCF5000FF7D5884270474FF0807C1CEB22
:104F4000410F38BF1CEB400F01D28842704780EA06
:104F5000010081EA000180EA0100FFF7F8BE0000CD
:104F600090EA010F48BF81F000413FF552AD421A6F
:104F700004D882F00042A0EB020011444FEAD05264
:104F80004FF07F4C1CEA410FA2EBD15318BF9CEAB3
:104F9000026F4AD04FF0004C4CEA00204CEA01214D
:104FA00021FA03FCB0EB0C0C0FD412F0FE0F36D03C
:104FB0005FEA4C001DD5001240EBC25038BF70476D
:104FC0001CF03F0F18BF70470BE0A2F101025FEA2F
:104FD0001C2040EBC25038BF70471CF07F0F18BF39
:104FE0007047C3F12003994014BF401E20F0010018
:104FF000704780084FEA122308BF7047B0FA80FC60
:10500000A2EB0C02CCF1280C60FA0CF093EA122F00
:1050100004BF00EBC25070474FEAC3707047130AD9
:105020005FEADC1008BF7047F6E79CEA026F04D025
:1050300010EA5C0F08BF0020704710B5FFF713FFA0
:1050400040DFF63E81F000407047FBF754BB0000A4
:105050000000000000000000000000000000000050
:1050600000F80000000000000033300000000010D5
:105070000C06100C0600000000000000000040C0FC
:105080007840C0784000043F04043F0404000070EE
:1050900088FC08300000001820FF211E0000F008E6
:1050A000F000E018000000211C031E211E0000F08B
:1050B0000888700000001E212324192721101016D3
:1050C0000E000000000000000000000000000000D2
:1050D00000E0180402000000000718204000000251
:1050E0000418E000000000402018070000004040C5
:1050F00080F0804040000202010F01020200000027
:1051000000F0000000000101011F0101010000008A
:1051100000000000000080B07000000000000000EF
:105120000000000000000001010101010101000078
:10513000000000000000003030000000000000000F
:10514000000080601804006018060100000000E004
:1051500010080810E000000F102020100F000010B1
:1051600010F8000000000020203F20200000007008
:105170000808088870000030282422213000003000
:105180000888884830000018202020110E000000F8
:10519000C02010F8000000070424243F240000F879
:1051A0000888880808000019212020110E0000E05E
:1051B000108888180000000F112020110E00003800
:1051C0000808C83808000000003F00000000007018
:1051D000880808887000001C222121221C0000E0A1
:1051E00010080810E0000000312222110F0000001A
:1051F00000C0C000000000000030300000000000CF
:10520000008000000000000080600000000000003E
:1052100080402010080000010204081020004040D7
:10522000404040404000040404040404040000081A
:1052300010204080000000201008040201000070CF
:1052400048080808F0000000003036010000C030B7
:10525000C828E810E0000718272423140B000000DA
:10526000C038E0000000203C23020227382008F864
:10527000888888700000203F202020110E00C03058
:10528000080808083800071820202010080008F82F
:1052900008080810E000203F202020100F0008F828
:1052A0008888E8081000203F20202320180008F8F4
:1052B0008888E8081000203F200003000000C0306C
:1052C00008080838000007182020221E020008F8ED
:1052D00008000008F808203F210101213F200008B4
:1052E00008F8080800000020203F202000000000EF
:1052F0000808F8080800C08080807F00000008F8D7
:1053000088C028180800203F20012638200008F80F
:10531000080000000000203F20202020300008F876
:10532000F800F8F80800203F003F003F200008F890
:1053300030C00008F808203F200007183F00E010A8
:1053400008080810E0000F10202020100F0008F8B7
:1053500008080808F000203F210101010000E010CA
:1053600008080810E0000F18242438504F0008F8EF
:10537000888888887000203F2000030C302000704F
:105380008808080838000038202121221C0018084D
:1053900008F8080818000000203F2000000008F866
:1053A00008000008F808001F202020201F000878AF
:1053B000880000C83808000007380E010000F8080F
:1053C00000F80008F800033C0700073C0300081839
:1053D00068808068180820302C03032C302008389F
:1053E000C800C83808000000203F20000000100856
:1053F0000808C8380800203826212020180000009E
:1054000000FE020202000000007F40404000000C4D
:1054100030C000000000000000010638C00000029B
:105420000202FE000000004040407F00000000003B
:10543000040202020400000000000000000000005E
:10544000000000000000808080808080808000025A
:105450000204000000000000000000000000000046
:105460008080808000000019242222223F2008F83A
:10547000008080000000003F112020110E0000007D
:10548000008080800000000E11202020110000000C
:1054900000808088F800000E112020103F200000BE
:1054A000808080800000001F2222222213000080C2
:1054B00080F0888888180020203F2020000000000D
:1054C000808080808000006B94949493600008F842
:1054D000008080800000203F210000203F200080CD
:1054E0009898000000000020203F202000000000CD
:1054F00000809898000000C08080807F000008F83D
:10550000000080808000203F24022D302000000811
:1055100008F8000000000020203F202000008080CC
:10552000808080808000203F20003F20003F8080DE
:10553000008080800000203F210000203F200000EC
:10554000808080800000001F202020201F0080809D
:1055500000808000000080FFA12020110E000000CC
:10556000008080808000000E112020A0FF808080BD
:1055700080008080800020203F212000010000006A
:10558000808080808000003324242424190000803F
:1055900080E0808000000000001F2020000080804C
:1055A000000000808000001F202020103F2080800D
:1055B00080000080808000010E300806010080809D
:1055C0000080008080800F300C030C300F000080C2
:1055D0008000808080000020312E0E3120008080ED
:1055E00080000080808080818E701806010000801D
:1055F0008080808080000021302C2221300000003B
:105600000000807C020200000000003F40400000DB
:105610000000FF00000000000000FF00000000028A
:10562000027C800000000040403F000000000006B7
:1056300001010202040400000000000000004030EC
:105640001196909091969090981413503000040405
:1056500004040444847E06050404040404008080D9
:1056600080BEA2A2A2A2A2A2A2BE80808000000050
:105670000006050404044484443C000000001010AB
:1056800012D2525F52F2525F52D21210100000003A
:10569000009F5232121F1232529F00000000C808B1
:1056A000090EE808445454547F5454544400206F65
:1056B000201C131000FF15151555957F00000808D4
:1056C0000838C808090E0808C8380808080080808B
:1056D000404020110A040A112040408080004040D0
:1056E00042CC0040404040FF40404040400000006D
:1056F000007F2010000000FF00000000000000FC00
:10570000848484FC001010101010FF101000003F63
:105710001010103F0000010640807F0000008080D4
:105720009E9292929EE0809EB2D2929E8000080845
:10573000F4949292F10001F2929494F8080000021D
:1057400002C2020202FE8282828282020000404085
:10575000407F4040407F4040404040404000048403
:10576000E45C44C42010E82724E4342CE000020167
:105770007F10103F80601F09093F49897F0040303A
:10578000EF246448487F4848487F4848400001016A
:105790007F211100FF4949494949FF00000040426B
:1057A000CC0000809E92929292929E800000000017
:1057B0007F2094844424140F142444848400108C87
:1057C0004404E40495A64424148444940C00020286
:1057D0007A414143427E42424243F8000000048441
:1057E000E45C44C40002F2828282FE8080000201F6
:1057F0007F10103F00080808084888403F0088686C
:105800001FC80810C85452D1129408D010000919AA
:1058100009FF0500FF1292FF005F807F000000007B
:1058200000000001E21CE0000000000000008040D9
:1058300020100C03000000030C30408080000000AA
:105840008A52225A46404758245288040000014197
:10585000404F596949494969594F40410100201059
:105860002CE7242480904C57A4544C8480000101E0
:10587000017F211110101515FF15151010001010C3
:10588000F01F10F0403C1010FF10101000004022DC
:1058900015081621404242427F4242424000002009
:1058A0002010081467844424140C00000000040431
:1058B0000402FE43434242424242FE0000000424EE
:1058C0004484649C40300FC8080828180000100861
:1058D0000601824C20180601061820408000404036
:1058E00042CC0000FC040200FC0404FC0000004068
:1058F000201F20404F4442407F42444340004040EC
:10590000424458C0407F40C05048464040008080DC
:10591000402018070000003F40404040780000F859
:105920000000FF4020180F18680808080800001F32
:105930000000FF00007F21213F21217F00000000A7
:1059400000FE92929292929292FE000000004042DB
:105950004458407F4040407F4050484640004040CF
:105960004242424242C24242424242404000201031
:1059700008060040807F000000020408300000009C
:10598000FE1292B2D2929292D2B29E0000004030A9
:105990000F0484641F040404FF04040400001010B6
:1059A00010FF9020988888E98E8888A89800024285
:1059B000817F000080844B28102847800000403001
:1059C000EF242480E49C105454FF547C1000010107
:1059D0007F21512618274445455F45454400080866
:1059E00089EA1888000404FC040404FC0000020195
:1059F00000FF0186402018074080403F0000101043
:105A0000F01F10F00040E05847405060C0004022B6
:105A1000150816210000FE42424242FE00000080AE
:105A200060F807000000FF4020100804000001009B
:105A300000FF000402013F40404040407800000069
:105A4000F8888888880808FF08090AC80800806064
:105A50001F0010201F80402116182641F80008085A
:105A600008F80808081010FF101010F0000010309F
:105A7000101F088848300E014080403F00008060C1
:105A8000F8878498002024A47F2434282400000070
:105A9000FF00007F241201FF494949FF0000040470
:105AA00084E41C0724242424A464240404000201A4
:105AB00000FF00020242827F020202020200101076
:105AC000D0FF901000FE020202FE0000000004035E
:105AD00000FF0083601F0000003F4040780010106E
